{
  "_format": "hh-sol-artifact-1",
  "contractName": "RideSharing",
  "sourceName": "contracts/RideSharing.sol",
  "abi": [
    {
      "inputs": [],
      "stateMutability": "nonpayable",
      "type": "constructor"
    },
    {
      "anonymous": false,
      "inputs": [
        {
          "indexed": true,
          "internalType": "address",
          "name": "user",
          "type": "address"
        },
        {
          "indexed": false,
          "internalType": "uint256",
          "name": "amount",
          "type": "uint256"
        }
      ],
      "name": "FundsWithdrawn",
      "type": "event"
    },
    {
      "anonymous": false,
      "inputs": [
        {
          "indexed": true,
          "internalType": "address",
          "name": "previousOwner",
          "type": "address"
        },
        {
          "indexed": true,
          "internalType": "address",
          "name": "newOwner",
          "type": "address"
        }
      ],
      "name": "OwnershipTransferred",
      "type": "event"
    },
    {
      "anonymous": false,
      "inputs": [
        {
          "indexed": true,
          "internalType": "uint256",
          "name": "rideId",
          "type": "uint256"
        },
        {
          "indexed": true,
          "internalType": "address",
          "name": "driver",
          "type": "address"
        }
      ],
      "name": "RideAccepted",
      "type": "event"
    },
    {
      "anonymous": false,
      "inputs": [
        {
          "indexed": true,
          "internalType": "uint256",
          "name": "rideId",
          "type": "uint256"
        }
      ],
      "name": "RideCancelled",
      "type": "event"
    },
    {
      "anonymous": false,
      "inputs": [
        {
          "indexed": true,
          "internalType": "uint256",
          "name": "rideId",
          "type": "uint256"
        }
      ],
      "name": "RideCompleted",
      "type": "event"
    },
    {
      "anonymous": false,
      "inputs": [
        {
          "indexed": true,
          "internalType": "uint256",
          "name": "rideId",
          "type": "uint256"
        },
        {
          "indexed": true,
          "internalType": "address",
          "name": "rider",
          "type": "address"
        },
        {
          "indexed": false,
          "internalType": "string",
          "name": "pickupLocation",
          "type": "string"
        },
        {
          "indexed": false,
          "internalType": "string",
          "name": "dropoffLocation",
          "type": "string"
        },
        {
          "indexed": false,
          "internalType": "uint256",
          "name": "fare",
          "type": "uint256"
        }
      ],
      "name": "RideRequested",
      "type": "event"
    },
    {
      "anonymous": false,
      "inputs": [
        {
          "indexed": true,
          "internalType": "address",
          "name": "rated",
          "type": "address"
        },
        {
          "indexed": true,
          "internalType": "address",
          "name": "rater",
          "type": "address"
        },
        {
          "indexed": false,
          "internalType": "uint256",
          "name": "rating",
          "type": "uint256"
        }
      ],
      "name": "UserRated",
      "type": "event"
    },
    {
      "anonymous": false,
      "inputs": [
        {
          "indexed": true,
          "internalType": "address",
          "name": "userAddress",
          "type": "address"
        },
        {
          "indexed": false,
          "internalType": "string",
          "name": "name",
          "type": "string"
        },
        {
          "indexed": false,
          "internalType": "enum RideSharing.UserRole",
          "name": "role",
          "type": "uint8"
        }
      ],
      "name": "UserRegistered",
      "type": "event"
    },
    {
      "inputs": [
        {
          "internalType": "uint256",
          "name": "_rideId",
          "type": "uint256"
        }
      ],
      "name": "acceptRide",
      "outputs": [],
      "stateMutability": "nonpayable",
      "type": "function"
    },
    {
      "inputs": [
        {
          "internalType": "uint256",
          "name": "",
          "type": "uint256"
        }
      ],
      "name": "availableDrivers",
      "outputs": [
        {
          "internalType": "address",
          "name": "",
          "type": "address"
        }
      ],
      "stateMutability": "view",
      "type": "function"
    },
    {
      "inputs": [
        {
          "internalType": "address",
          "name": "",
          "type": "address"
        }
      ],
      "name": "balances",
      "outputs": [
        {
          "internalType": "uint256",
          "name": "",
          "type": "uint256"
        }
      ],
      "stateMutability": "view",
      "type": "function"
    },
    {
      "inputs": [
        {
          "internalType": "uint256",
          "name": "_rideId",
          "type": "uint256"
        }
      ],
      "name": "cancelRide",
      "outputs": [],
      "stateMutability": "nonpayable",
      "type": "function"
    },
    {
      "inputs": [
        {
          "internalType": "uint256",
          "name": "_rideId",
          "type": "uint256"
        }
      ],
      "name": "completeRide",
      "outputs": [],
      "stateMutability": "nonpayable",
      "type": "function"
    },
    {
      "inputs": [],
      "name": "getAvailableDrivers",
      "outputs": [
        {
          "internalType": "address[]",
          "name": "",
          "type": "address[]"
        }
      ],
      "stateMutability": "view",
      "type": "function"
    },
    {
      "inputs": [],
      "name": "getPlatformFeePercentage",
      "outputs": [
        {
          "internalType": "uint256",
          "name": "",
          "type": "uint256"
        }
      ],
      "stateMutability": "view",
      "type": "function"
    },
    {
      "inputs": [],
      "name": "getRideCount",
      "outputs": [
        {
          "internalType": "uint256",
          "name": "",
          "type": "uint256"
        }
      ],
      "stateMutability": "view",
      "type": "function"
    },
    {
      "inputs": [
        {
          "internalType": "uint256",
          "name": "_start",
          "type": "uint256"
        },
        {
          "internalType": "uint256",
          "name": "_end",
          "type": "uint256"
        }
      ],
      "name": "getRidesInRange",
      "outputs": [
        {
          "components": [
            {
              "internalType": "uint256",
              "name": "id",
              "type": "uint256"
            },
            {
              "internalType": "address",
              "name": "rider",
              "type": "address"
            },
            {
              "internalType": "address",
              "name": "driver",
              "type": "address"
            },
            {
              "internalType": "string",
              "name": "pickupLocation",
              "type": "string"
            },
            {
              "internalType": "string",
              "name": "dropoffLocation",
              "type": "string"
            },
            {
              "internalType": "uint256",
              "name": "fare",
              "type": "uint256"
            },
            {
              "internalType": "uint256",
              "name": "timestamp",
              "type": "uint256"
            },
            {
              "internalType": "enum RideSharing.RideStatus",
              "name": "status",
              "type": "uint8"
            },
            {
              "internalType": "bool",
              "name": "isRated",
              "type": "bool"
            }
          ],
          "internalType": "struct RideSharing.Ride[]",
          "name": "",
          "type": "tuple[]"
        }
      ],
      "stateMutability": "view",
      "type": "function"
    },
    {
      "inputs": [
        {
          "internalType": "address",
          "name": "_user",
          "type": "address"
        }
      ],
      "name": "getUserBalance",
      "outputs": [
        {
          "internalType": "uint256",
          "name": "",
          "type": "uint256"
        }
      ],
      "stateMutability": "view",
      "type": "function"
    },
    {
      "inputs": [
        {
          "internalType": "address",
          "name": "_user",
          "type": "address"
        }
      ],
      "name": "getUserRating",
      "outputs": [
        {
          "internalType": "uint256",
          "name": "",
          "type": "uint256"
        }
      ],
      "stateMutability": "view",
      "type": "function"
    },
    {
      "inputs": [
        {
          "internalType": "address",
          "name": "_user",
          "type": "address"
        }
      ],
      "name": "getUserRides",
      "outputs": [
        {
          "internalType": "uint256[]",
          "name": "",
          "type": "uint256[]"
        }
      ],
      "stateMutability": "view",
      "type": "function"
    },
    {
      "inputs": [],
      "name": "owner",
      "outputs": [
        {
          "internalType": "address",
          "name": "",
          "type": "address"
        }
      ],
      "stateMutability": "view",
      "type": "function"
    },
    {
      "inputs": [
        {
          "internalType": "address",
          "name": "_user",
          "type": "address"
        },
        {
          "internalType": "uint256",
          "name": "_rating",
          "type": "uint256"
        }
      ],
      "name": "rateUser",
      "outputs": [],
      "stateMutability": "nonpayable",
      "type": "function"
    },
    {
      "inputs": [
        {
          "internalType": "string",
          "name": "_name",
          "type": "string"
        },
        {
          "internalType": "string",
          "name": "_phoneNumber",
          "type": "string"
        },
        {
          "internalType": "enum RideSharing.UserRole",
          "name": "_role",
          "type": "uint8"
        }
      ],
      "name": "registerUser",
      "outputs": [],
      "stateMutability": "nonpayable",
      "type": "function"
    },
    {
      "inputs": [],
      "name": "renounceOwnership",
      "outputs": [],
      "stateMutability": "nonpayable",
      "type": "function"
    },
    {
      "inputs": [
        {
          "internalType": "string",
          "name": "_pickupLocation",
          "type": "string"
        },
        {
          "internalType": "string",
          "name": "_dropoffLocation",
          "type": "string"
        },
        {
          "internalType": "uint256",
          "name": "_fare",
          "type": "uint256"
        }
      ],
      "name": "requestRide",
      "outputs": [],
      "stateMutability": "payable",
      "type": "function"
    },
    {
      "inputs": [
        {
          "internalType": "uint256",
          "name": "",
          "type": "uint256"
        }
      ],
      "name": "rides",
      "outputs": [
        {
          "internalType": "uint256",
          "name": "id",
          "type": "uint256"
        },
        {
          "internalType": "address",
          "name": "rider",
          "type": "address"
        },
        {
          "internalType": "address",
          "name": "driver",
          "type": "address"
        },
        {
          "internalType": "string",
          "name": "pickupLocation",
          "type": "string"
        },
        {
          "internalType": "string",
          "name": "dropoffLocation",
          "type": "string"
        },
        {
          "internalType": "uint256",
          "name": "fare",
          "type": "uint256"
        },
        {
          "internalType": "uint256",
          "name": "timestamp",
          "type": "uint256"
        },
        {
          "internalType": "enum RideSharing.RideStatus",
          "name": "status",
          "type": "uint8"
        },
        {
          "internalType": "bool",
          "name": "isRated",
          "type": "bool"
        }
      ],
      "stateMutability": "view",
      "type": "function"
    },
    {
      "inputs": [
        {
          "internalType": "uint256",
          "name": "_feePercentage",
          "type": "uint256"
        }
      ],
      "name": "setPlatformFeePercentage",
      "outputs": [],
      "stateMutability": "nonpayable",
      "type": "function"
    },
    {
      "inputs": [
        {
          "internalType": "address",
          "name": "newOwner",
          "type": "address"
        }
      ],
      "name": "transferOwnership",
      "outputs": [],
      "stateMutability": "nonpayable",
      "type": "function"
    },
    {
      "inputs": [
        {
          "internalType": "address",
          "name": "",
          "type": "address"
        },
        {
          "internalType": "uint256",
          "name": "",
          "type": "uint256"
        }
      ],
      "name": "userRides",
      "outputs": [
        {
          "internalType": "uint256",
          "name": "",
          "type": "uint256"
        }
      ],
      "stateMutability": "view",
      "type": "function"
    },
    {
      "inputs": [
        {
          "internalType": "address",
          "name": "",
          "type": "address"
        }
      ],
      "name": "users",
      "outputs": [
        {
          "internalType": "address",
          "name": "wallet",
          "type": "address"
        },
        {
          "internalType": "string",
          "name": "name",
          "type": "string"
        },
        {
          "internalType": "string",
          "name": "phoneNumber",
          "type": "string"
        },
        {
          "internalType": "enum RideSharing.UserRole",
          "name": "role",
          "type": "uint8"
        },
        {
          "internalType": "bool",
          "name": "isRegistered",
          "type": "bool"
        },
        {
          "internalType": "uint256",
          "name": "rating",
          "type": "uint256"
        },
        {
          "internalType": "uint256",
          "name": "totalRatings",
          "type": "uint256"
        }
      ],
      "stateMutability": "view",
      "type": "function"
    },
    {
      "inputs": [],
      "name": "withdrawFunds",
      "outputs": [],
      "stateMutability": "nonpayable",
      "type": "function"
    },
    {
      "inputs": [],
      "name": "withdrawPlatformFees",
      "outputs": [],
      "stateMutability": "nonpayable",
      "type": "function"
    }
  ],
  "bytecode": "0x60806040523480156200001157600080fd5b5062000032620000266200004860201b60201c565b6200005060201b60201c565b600180819055506101f460038190555062000114565b600033905090565b60008060009054906101000a900473ffffffffffffffffffffffffffffffffffffffff169050816000806101000a81548173ffffffffffffffffffffffffffffffffffffffff021916908373ffffffffffffffffffffffffffffffffffffffff1602179055508173ffffffffffffffffffffffffffffffffffffffff168173ffffffffffffffffffffffffffffffffffffffff167f8be0079c531659141344cd1fd0a4f28419497f9722a3daafe3b4186f6b6457e060405160405180910390a35050565b61480980620001246000396000f3fe60806040526004361061014b5760003560e01c80638333903e116100b6578063bde208bd1161006f578063bde208bd146104a3578063c416dd0b146104e0578063c51562cb14610509578063cdfa7dc614610532578063d0b7830b1461056f578063f2fde38b146105865761014b565b80638333903e1461038d57806383c81286146103b65780638959a5d1146103e15780638da5cb5b1461040c578063a6f07b2914610437578063a87430ba146104605761014b565b80635205f112116101085780635205f112146102705780635a4d1b2e146102b5578063715018a6146102d1578063787ceca0146102e85780637a3a27ea146103255780637c0351d1146103505761014b565b806324600fc31461015057806327e235e3146101675780632e17a931146101a45780633d4effc4146101cd578063460168c3146101f65780634773489214610233575b600080fd5b34801561015c57600080fd5b506101656105af565b005b34801561017357600080fd5b5061018e60048036038101906101899190612ed9565b6107b2565b60405161019b9190612f1f565b60405180910390f35b3480156101b057600080fd5b506101cb60048036038101906101c691906130a5565b6107ca565b005b3480156101d957600080fd5b506101f460048036038101906101ef919061315c565b610ab7565b005b34801561020257600080fd5b5061021d60048036038101906102189190612ed9565b610d74565b60405161022a9190612f1f565b60405180910390f35b34801561023f57600080fd5b5061025a60048036038101906102559190612ed9565b610e4f565b6040516102679190612f1f565b60405180910390f35b34801561027c57600080fd5b506102976004803603810190610292919061319c565b610e98565b6040516102ac999897969594939291906132e9565b60405180910390f35b6102cf60048036038101906102ca9190613384565b611050565b005b3480156102dd57600080fd5b506102e6611441565b005b3480156102f457600080fd5b5061030f600480360381019061030a919061340f565b611455565b60405161031c9190613663565b60405180910390f35b34801561033157600080fd5b5061033a6117d1565b6040516103479190612f1f565b60405180910390f35b34801561035c57600080fd5b5061037760048036038101906103729190612ed9565b6117db565b6040516103849190613734565b60405180910390f35b34801561039957600080fd5b506103b460048036038101906103af919061319c565b611872565b005b3480156103c257600080fd5b506103cb6118c9565b6040516103d89190613805565b60405180910390f35b3480156103ed57600080fd5b506103f6611957565b6040516104039190612f1f565b60405180910390f35b34801561041857600080fd5b50610421611961565b60405161042e9190613827565b60405180910390f35b34801561044357600080fd5b5061045e6004803603810190610459919061319c565b61198a565b005b34801561046c57600080fd5b5061048760048036038101906104829190612ed9565b611d87565b60405161049a979695949392919061388a565b60405180910390f35b3480156104af57600080fd5b506104ca60048036038101906104c5919061319c565b611f13565b6040516104d79190613827565b60405180910390f35b3480156104ec57600080fd5b506105076004803603810190610502919061319c565b611f52565b005b34801561051557600080fd5b50610530600480360381019061052b919061319c565b61234a565b005b34801561053e57600080fd5b506105596004803603810190610554919061315c565b6126e6565b6040516105669190612f1f565b60405180910390f35b34801561057b57600080fd5b50610584612717565b005b34801561059257600080fd5b506105ad60048036038101906105a89190612ed9565b6127c8565b005b600460003373ffffffffffffffffffffffffffffffffffffffff1673ffffffffffffffffffffffffffffffffffffffff16815260200190815260200160002060030160019054906101000a900460ff1661063e576040517f08c379a000000000000000000000000000000000000000000000000000000000815260040161063590613953565b60405180910390fd5b61064661284b565b6000600760003373ffffffffffffffffffffffffffffffffffffffff1673ffffffffffffffffffffffffffffffffffffffff168152602001908152602001600020549050600081116106cd576040517f08c379a00000000000000000000000000000000000000000000000000000000081526004016106c4906139bf565b60405180910390fd5b6000600760003373ffffffffffffffffffffffffffffffffffffffff1673ffffffffffffffffffffffffffffffffffffffff168152602001908152602001600020819055503373ffffffffffffffffffffffffffffffffffffffff166108fc829081150290604051600060405180830381858888f19350505050158015610758573d6000803e3d6000fd5b503373ffffffffffffffffffffffffffffffffffffffff167feaff4b37086828766ad3268786972c0cd24259d4c87a80f9d3963a3c3d999b0d8260405161079f9190612f1f565b60405180910390a2506107b061289a565b565b60076020528060005260406000206000915090505481565b600460003373ffffffffffffffffffffffffffffffffffffffff1673ffffffffffffffffffffffffffffffffffffffff16815260200190815260200160002060030160019054906101000a900460ff161561085a576040517f08c379a000000000000000000000000000000000000000000000000000000000815260040161085190613a2b565b60405180910390fd5b6040518060e001604052803373ffffffffffffffffffffffffffffffffffffffff1681526020018481526020018381526020018260018111156108a05761089f613257565b5b8152602001600115158152602001600081526020016000815250600460003373ffffffffffffffffffffffffffffffffffffffff1673ffffffffffffffffffffffffffffffffffffffff16815260200190815260200160002060008201518160000160006101000a81548173ffffffffffffffffffffffffffffffffffffffff021916908373ffffffffffffffffffffffffffffffffffffffff16021790555060208201518160010190816109559190613c57565b50604082015181600201908161096b9190613c57565b5060608201518160030160006101000a81548160ff0219169083600181111561099757610996613257565b5b021790555060808201518160030160016101000a81548160ff02191690831515021790555060a0820151816004015560c082015181600501559050506001808111156109e6576109e5613257565b5b8160018111156109f9576109f8613257565b5b03610a62576008339080600181540180825580915050600190039060005260206000200160009091909190916101000a81548173ffffffffffffffffffffffffffffffffffffffff021916908373ffffffffffffffffffffffffffffffffffffffff1602179055505b3373ffffffffffffffffffffffffffffffffffffffff167fc2e5d5da58bd71d1a2d14cdef02a4256d971b728088f8190d067ccfbae3bd73e8483604051610aaa929190613d29565b60405180910390a2505050565b600460003373ffffffffffffffffffffffffffffffffffffffff1673ffffffffffffffffffffffffffffffffffffffff16815260200190815260200160002060030160019054906101000a900460ff16610b46576040517f08c379a0000000000000000000000000000000000000000000000000000000008152600401610b3d90613953565b60405180910390fd5b60018110158015610b58575060058111155b610b97576040517f08c379a0000000000000000000000000000000000000000000000000000000008152600401610b8e90613da5565b60405180910390fd5b600460008373ffffffffffffffffffffffffffffffffffffffff1673ffffffffffffffffffffffffffffffffffffffff16815260200190815260200160002060030160019054906101000a900460ff16610c26576040517f08c379a0000000000000000000000000000000000000000000000000000000008152600401610c1d90613e11565b60405180910390fd5b610c3033836128a3565b610c6f576040517f08c379a0000000000000000000000000000000000000000000000000000000008152600401610c6690613ea3565b60405180910390fd5b6000600460008473ffffffffffffffffffffffffffffffffffffffff1673ffffffffffffffffffffffffffffffffffffffff1681526020019081526020016000209050600081600501548260040154610cc89190613ef2565b90506001826005016000828254610cdf9190613f34565b9250508190555081600501548382610cf79190613f34565b610d019190613f97565b82600401819055503373ffffffffffffffffffffffffffffffffffffffff168473ffffffffffffffffffffffffffffffffffffffff167f5d7810bb85751be82d8965293f081a3833be22a320a0ad50eeae86b00251a5b385604051610d669190612f1f565b60405180910390a350505050565b6000600460008373ffffffffffffffffffffffffffffffffffffffff1673ffffffffffffffffffffffffffffffffffffffff16815260200190815260200160002060030160019054906101000a900460ff16610e05576040517f08c379a0000000000000000000000000000000000000000000000000000000008152600401610dfc90613953565b60405180910390fd5b600460008373ffffffffffffffffffffffffffffffffffffffff1673ffffffffffffffffffffffffffffffffffffffff168152602001908152602001600020600401549050919050565b6000600760008373ffffffffffffffffffffffffffffffffffffffff1673ffffffffffffffffffffffffffffffffffffffff168152602001908152602001600020549050919050565b60056020528060005260406000206000915090508060000154908060010160009054906101000a900473ffffffffffffffffffffffffffffffffffffffff16908060020160009054906101000a900473ffffffffffffffffffffffffffffffffffffffff1690806003018054610f0d90613a7a565b80601f0160208091040260200160405190810160405280929190818152602001828054610f3990613a7a565b8015610f865780601f10610f5b57610100808354040283529160200191610f86565b820191906000526020600020905b815481529060010190602001808311610f6957829003601f168201915b505050505090806004018054610f9b90613a7a565b80601f0160208091040260200160405190810160405280929190818152602001828054610fc790613a7a565b80156110145780601f10610fe957610100808354040283529160200191611014565b820191906000526020600020905b815481529060010190602001808311610ff757829003601f168201915b5050505050908060050154908060060154908060070160009054906101000a900460ff16908060070160019054906101000a900460ff16905089565b600460003373ffffffffffffffffffffffffffffffffffffffff1673ffffffffffffffffffffffffffffffffffffffff16815260200190815260200160002060030160019054906101000a900460ff16801561111f5750600060018111156110bb576110ba613257565b5b600460003373ffffffffffffffffffffffffffffffffffffffff1673ffffffffffffffffffffffffffffffffffffffff16815260200190815260200160002060030160009054906101000a900460ff16600181111561111d5761111c613257565b5b145b61115e576040517f08c379a00000000000000000000000000000000000000000000000000000000081526004016111559061403a565b60405180910390fd5b803410156111a1576040517f08c379a0000000000000000000000000000000000000000000000000000000008152600401611198906140a6565b60405180910390fd5b60405180610120016040528060025481526020013373ffffffffffffffffffffffffffffffffffffffff168152602001600073ffffffffffffffffffffffffffffffffffffffff1681526020018481526020018381526020018281526020014281526020016000600381111561121a57611219613257565b5b8152602001600015158152506005600060025481526020019081526020016000206000820151816000015560208201518160010160006101000a81548173ffffffffffffffffffffffffffffffffffffffff021916908373ffffffffffffffffffffffffffffffffffffffff16021790555060408201518160020160006101000a81548173ffffffffffffffffffffffffffffffffffffffff021916908373ffffffffffffffffffffffffffffffffffffffff16021790555060608201518160030190816112e89190613c57565b5060808201518160040190816112fe9190613c57565b5060a0820151816005015560c0820151816006015560e08201518160070160006101000a81548160ff0219169083600381111561133e5761133d613257565b5b02179055506101008201518160070160016101000a81548160ff021916908315150217905550905050600660003373ffffffffffffffffffffffffffffffffffffffff1673ffffffffffffffffffffffffffffffffffffffff16815260200190815260200160002060025490806001815401808255809150506001900390600052602060002001600090919091909150553373ffffffffffffffffffffffffffffffffffffffff166002547f6df8a9fd56bc145c1b2254aea11dc4363ff4440765898a9bfeabe8b5d2fbce1185858560405161141c939291906140c6565b60405180910390a3600260008154809291906114379061410b565b9190505550505050565b611449612b01565b6114536000612b7f565b565b6060818311158015611468575060025482105b6114a7576040517f08c379a000000000000000000000000000000000000000000000000000000000815260040161149e9061419f565b60405180910390fd5b6000600184846114b791906141bf565b6114c19190613f34565b905060008167ffffffffffffffff8111156114df576114de612f55565b5b60405190808252806020026020018201604052801561151857816020015b611505612ddb565b8152602001906001900390816114fd5790505b50905060005b828110156117c5576005600082886115369190613f34565b815260200190815260200160002060405180610120016040529081600082015481526020016001820160009054906101000a900473ffffffffffffffffffffffffffffffffffffffff1673ffffffffffffffffffffffffffffffffffffffff1673ffffffffffffffffffffffffffffffffffffffff1681526020016002820160009054906101000a900473ffffffffffffffffffffffffffffffffffffffff1673ffffffffffffffffffffffffffffffffffffffff1673ffffffffffffffffffffffffffffffffffffffff16815260200160038201805461161690613a7a565b80601f016020809104026020016040519081016040528092919081815260200182805461164290613a7a565b801561168f5780601f106116645761010080835404028352916020019161168f565b820191906000526020600020905b81548152906001019060200180831161167257829003601f168201915b505050505081526020016004820180546116a890613a7a565b80601f01602080910402602001604051908101604052809291908181526020018280546116d490613a7a565b80156117215780601f106116f657610100808354040283529160200191611721565b820191906000526020600020905b81548152906001019060200180831161170457829003601f168201915b5050505050815260200160058201548152602001600682015481526020016007820160009054906101000a900460ff16600381111561176357611762613257565b5b600381111561177557611774613257565b5b81526020016007820160019054906101000a900460ff1615151515815250508282815181106117a7576117a66141f3565b5b602002602001018190525080806117bd9061410b565b91505061151e565b50809250505092915050565b6000600354905090565b6060600660008373ffffffffffffffffffffffffffffffffffffffff1673ffffffffffffffffffffffffffffffffffffffff16815260200190815260200160002080548060200260200160405190810160405280929190818152602001828054801561186657602002820191906000526020600020905b815481526020019060010190808311611852575b50505050509050919050565b61187a612b01565b610bb88111156118bf576040517f08c379a00000000000000000000000000000000000000000000000000000000081526004016118b69061426e565b60405180910390fd5b8060038190555050565b6060600880548060200260200160405190810160405280929190818152602001828054801561194d57602002820191906000526020600020905b8160009054906101000a900473ffffffffffffffffffffffffffffffffffffffff1673ffffffffffffffffffffffffffffffffffffffff1681526020019060010190808311611903575b5050505050905090565b6000600254905090565b60008060009054906101000a900473ffffffffffffffffffffffffffffffffffffffff16905090565b8060025481106119cf576040517f08c379a00000000000000000000000000000000000000000000000000000000081526004016119c6906142da565b60405180910390fd5b6000600560008481526020019081526020016000209050600060038111156119fa576119f9613257565b5b8160070160009054906101000a900460ff166003811115611a1e57611a1d613257565b5b1480611a5f575060016003811115611a3957611a38613257565b5b8160070160009054906101000a900460ff166003811115611a5d57611a5c613257565b5b145b611a9e576040517f08c379a0000000000000000000000000000000000000000000000000000000008152600401611a9590614346565b60405180910390fd5b8060010160009054906101000a900473ffffffffffffffffffffffffffffffffffffffff1673ffffffffffffffffffffffffffffffffffffffff163373ffffffffffffffffffffffffffffffffffffffff161480611b4b57508060020160009054906101000a900473ffffffffffffffffffffffffffffffffffffffff1673ffffffffffffffffffffffffffffffffffffffff163373ffffffffffffffffffffffffffffffffffffffff16145b611b8a576040517f08c379a0000000000000000000000000000000000000000000000000000000008152600401611b81906143b2565b60405180910390fd5b60008160070160009054906101000a900460ff16905060038260070160006101000a81548160ff02191690836003811115611bc857611bc7613257565b5b021790555060006003811115611be157611be0613257565b5b816003811115611bf457611bf3613257565b5b1480611c24575060016003811115611c0f57611c0e613257565b5b816003811115611c2257611c21613257565b5b145b15611c99578160010160009054906101000a900473ffffffffffffffffffffffffffffffffffffffff1673ffffffffffffffffffffffffffffffffffffffff166108fc83600501549081150290604051600060405180830381858888f19350505050158015611c97573d6000803e3d6000fd5b505b8160020160009054906101000a900473ffffffffffffffffffffffffffffffffffffffff1673ffffffffffffffffffffffffffffffffffffffff163373ffffffffffffffffffffffffffffffffffffffff1603611d54576008339080600181540180825580915050600190039060005260206000200160009091909190916101000a81548173ffffffffffffffffffffffffffffffffffffffff021916908373ffffffffffffffffffffffffffffffffffffffff1602179055505b837f0c23eb44b06124e00526761c3c77095fc814bb72c9be3ac1e58f0bc2ebfe4f7e60405160405180910390a250505050565b60046020528060005260406000206000915090508060000160009054906101000a900473ffffffffffffffffffffffffffffffffffffffff1690806001018054611dd090613a7a565b80601f0160208091040260200160405190810160405280929190818152602001828054611dfc90613a7a565b8015611e495780601f10611e1e57610100808354040283529160200191611e49565b820191906000526020600020905b815481529060010190602001808311611e2c57829003601f168201915b505050505090806002018054611e5e90613a7a565b80601f0160208091040260200160405190810160405280929190818152602001828054611e8a90613a7a565b8015611ed75780601f10611eac57610100808354040283529160200191611ed7565b820191906000526020600020905b815481529060010190602001808311611eba57829003601f168201915b5050505050908060030160009054906101000a900460ff16908060030160019054906101000a900460ff16908060040154908060050154905087565b60088181548110611f2357600080fd5b906000526020600020016000915054906101000a900473ffffffffffffffffffffffffffffffffffffffff1681565b600460003373ffffffffffffffffffffffffffffffffffffffff1673ffffffffffffffffffffffffffffffffffffffff16815260200190815260200160002060030160019054906101000a900460ff1680156120205750600180811115611fbc57611fbb613257565b5b600460003373ffffffffffffffffffffffffffffffffffffffff1673ffffffffffffffffffffffffffffffffffffffff16815260200190815260200160002060030160009054906101000a900460ff16600181111561201e5761201d613257565b5b145b61205f576040517f08c379a000000000000000000000000000000000000000000000000000000000815260040161205690614444565b60405180910390fd5b8060025481106120a4576040517f08c379a000000000000000000000000000000000000000000000000000000000815260040161209b906142da565b60405180910390fd5b6120ac61284b565b60006005600084815260200190815260200160002090503373ffffffffffffffffffffffffffffffffffffffff168160020160009054906101000a900473ffffffffffffffffffffffffffffffffffffffff1673ffffffffffffffffffffffffffffffffffffffff1614612155576040517f08c379a000000000000000000000000000000000000000000000000000000000815260040161214c906144d6565b60405180910390fd5b6001600381111561216957612168613257565b5b8160070160009054906101000a900460ff16600381111561218d5761218c613257565b5b146121cd576040517f08c379a00000000000000000000000000000000000000000000000000000000081526004016121c490614542565b60405180910390fd5b60028160070160006101000a81548160ff021916908360038111156121f5576121f4613257565b5b0217905550600061271060035483600501546122119190613ef2565b61221b9190613f97565b9050600081836005015461222f91906141bf565b905080600760008560020160009054906101000a900473ffffffffffffffffffffffffffffffffffffffff1673ffffffffffffffffffffffffffffffffffffffff1673ffffffffffffffffffffffffffffffffffffffff16815260200190815260200160002060008282546122a49190613f34565b925050819055506008339080600181540180825580915050600190039060005260206000200160009091909190916101000a81548173ffffffffffffffffffffffffffffffffffffffff021916908373ffffffffffffffffffffffffffffffffffffffff160217905550847f63e5b4bf8bc6c9cf867e6cc4d53f654c1f0365d975100e04129de6383f8c4b2360405160405180910390a250505061234661289a565b5050565b600460003373ffffffffffffffffffffffffffffffffffffffff1673ffffffffffffffffffffffffffffffffffffffff16815260200190815260200160002060030160019054906101000a900460ff16801561241857506001808111156123b4576123b3613257565b5b600460003373ffffffffffffffffffffffffffffffffffffffff1673ffffffffffffffffffffffffffffffffffffffff16815260200190815260200160002060030160009054906101000a900460ff16600181111561241657612415613257565b5b145b612457576040517f08c379a000000000000000000000000000000000000000000000000000000000815260040161244e90614444565b60405180910390fd5b80600254811061249c576040517f08c379a0000000000000000000000000000000000000000000000000000000008152600401612493906142da565b60405180910390fd5b6000600560008481526020019081526020016000209050600060038111156124c7576124c6613257565b5b8160070160009054906101000a900460ff1660038111156124eb576124ea613257565b5b1461252b576040517f08c379a0000000000000000000000000000000000000000000000000000000008152600401612522906145ae565b60405180910390fd5b600073ffffffffffffffffffffffffffffffffffffffff168160020160009054906101000a900473ffffffffffffffffffffffffffffffffffffffff1673ffffffffffffffffffffffffffffffffffffffff16146125be576040517f08c379a00000000000000000000000000000000000000000000000000000000081526004016125b59061461a565b60405180910390fd5b338160020160006101000a81548173ffffffffffffffffffffffffffffffffffffffff021916908373ffffffffffffffffffffffffffffffffffffffff16021790555060018160070160006101000a81548160ff0219169083600381111561262957612628613257565b5b021790555061263733612c43565b600660003373ffffffffffffffffffffffffffffffffffffffff1673ffffffffffffffffffffffffffffffffffffffff1681526020019081526020016000208390806001815401808255809150506001900390600052602060002001600090919091909150553373ffffffffffffffffffffffffffffffffffffffff16837fcb890c33fd108e736800f548e422bb587b58384dea0bbc2849e4b904ce455bbc60405160405180910390a3505050565b6006602052816000526040600020818154811061270257600080fd5b90600052602060002001600091509150505481565b61271f612b01565b61272761284b565b60004790506000811161276f576040517f08c379a0000000000000000000000000000000000000000000000000000000008152600401612766906139bf565b60405180910390fd5b612777611961565b73ffffffffffffffffffffffffffffffffffffffff166108fc829081150290604051600060405180830381858888f193505050501580156127bc573d6000803e3d6000fd5b50506127c661289a565b565b6127d0612b01565b600073ffffffffffffffffffffffffffffffffffffffff168173ffffffffffffffffffffffffffffffffffffffff160361283f576040517f08c379a0000000000000000000000000000000000000000000000000000000008152600401612836906146ac565b60405180910390fd5b61284881612b7f565b50565b600260015403612890576040517f08c379a000000000000000000000000000000000000000000000000000000000815260040161288790614718565b60405180910390fd5b6002600181905550565b60018081905550565b600080600090505b600660008573ffffffffffffffffffffffffffffffffffffffff1673ffffffffffffffffffffffffffffffffffffffff16815260200190815260200160002080549050811015612af5576000600660008673ffffffffffffffffffffffffffffffffffffffff1673ffffffffffffffffffffffffffffffffffffffff1681526020019081526020016000208281548110612948576129476141f3565b5b9060005260206000200154905060006005600083815260200190815260200160002090508573ffffffffffffffffffffffffffffffffffffffff168160010160009054906101000a900473ffffffffffffffffffffffffffffffffffffffff1673ffffffffffffffffffffffffffffffffffffffff16148015612a1a57508473ffffffffffffffffffffffffffffffffffffffff168160020160009054906101000a900473ffffffffffffffffffffffffffffffffffffffff1673ffffffffffffffffffffffffffffffffffffffff16145b80612acf57508473ffffffffffffffffffffffffffffffffffffffff168160010160009054906101000a900473ffffffffffffffffffffffffffffffffffffffff1673ffffffffffffffffffffffffffffffffffffffff16148015612ace57508573ffffffffffffffffffffffffffffffffffffffff168160020160009054906101000a900473ffffffffffffffffffffffffffffffffffffffff1673ffffffffffffffffffffffffffffffffffffffff16145b5b15612ae05760019350505050612afb565b50508080612aed9061410b565b9150506128ab565b50600090505b92915050565b612b09612dd3565b73ffffffffffffffffffffffffffffffffffffffff16612b27611961565b73ffffffffffffffffffffffffffffffffffffffff1614612b7d576040517f08c379a0000000000000000000000000000000000000000000000000000000008152600401612b7490614784565b60405180910390fd5b565b60008060009054906101000a900473ffffffffffffffffffffffffffffffffffffffff169050816000806101000a81548173ffffffffffffffffffffffffffffffffffffffff021916908373ffffffffffffffffffffffffffffffffffffffff1602179055508173ffffffffffffffffffffffffffffffffffffffff168173ffffffffffffffffffffffffffffffffffffffff167f8be0079c531659141344cd1fd0a4f28419497f9722a3daafe3b4186f6b6457e060405160405180910390a35050565b60005b600880549050811015612dcf578173ffffffffffffffffffffffffffffffffffffffff1660088281548110612c7e57612c7d6141f3565b5b9060005260206000200160009054906101000a900473ffffffffffffffffffffffffffffffffffffffff1673ffffffffffffffffffffffffffffffffffffffff1603612dbc5760086001600880549050612cd891906141bf565b81548110612ce957612ce86141f3565b5b9060005260206000200160009054906101000a900473ffffffffffffffffffffffffffffffffffffffff1660088281548110612d2857612d276141f3565b5b9060005260206000200160006101000a81548173ffffffffffffffffffffffffffffffffffffffff021916908373ffffffffffffffffffffffffffffffffffffffff1602179055506008805480612d8257612d816147a4565b5b6001900381819060005260206000200160006101000a81549073ffffffffffffffffffffffffffffffffffffffff02191690559055612dcf565b8080612dc79061410b565b915050612c46565b5050565b600033905090565b60405180610120016040528060008152602001600073ffffffffffffffffffffffffffffffffffffffff168152602001600073ffffffffffffffffffffffffffffffffffffffff1681526020016060815260200160608152602001600081526020016000815260200160006003811115612e5857612e57613257565b5b81526020016000151581525090565b6000604051905090565b600080fd5b600080fd5b600073ffffffffffffffffffffffffffffffffffffffff82169050919050565b6000612ea682612e7b565b9050919050565b612eb681612e9b565b8114612ec157600080fd5b50565b600081359050612ed381612ead565b92915050565b600060208284031215612eef57612eee612e71565b5b6000612efd84828501612ec4565b91505092915050565b6000819050919050565b612f1981612f06565b82525050565b6000602082019050612f346000830184612f10565b92915050565b600080fd5b600080fd5b6000601f19601f8301169050919050565b7f4e487b7100000000000000000000000000000000000000000000000000000000600052604160045260246000fd5b612f8d82612f44565b810181811067ffffffffffffffff82111715612fac57612fab612f55565b5b80604052505050565b6000612fbf612e67565b9050612fcb8282612f84565b919050565b600067ffffffffffffffff821115612feb57612fea612f55565b5b612ff482612f44565b9050602081019050919050565b82818337600083830152505050565b600061302361301e84612fd0565b612fb5565b90508281526020810184848401111561303f5761303e612f3f565b5b61304a848285613001565b509392505050565b600082601f83011261306757613066612f3a565b5b8135613077848260208601613010565b91505092915050565b6002811061308d57600080fd5b50565b60008135905061309f81613080565b92915050565b6000806000606084860312156130be576130bd612e71565b5b600084013567ffffffffffffffff8111156130dc576130db612e76565b5b6130e886828701613052565b935050602084013567ffffffffffffffff81111561310957613108612e76565b5b61311586828701613052565b925050604061312686828701613090565b9150509250925092565b61313981612f06565b811461314457600080fd5b50565b60008135905061315681613130565b92915050565b6000806040838503121561317357613172612e71565b5b600061318185828601612ec4565b925050602061319285828601613147565b9150509250929050565b6000602082840312156131b2576131b1612e71565b5b60006131c084828501613147565b91505092915050565b6131d281612e9b565b82525050565b600081519050919050565b600082825260208201905092915050565b60005b838110156132125780820151818401526020810190506131f7565b60008484015250505050565b6000613229826131d8565b61323381856131e3565b93506132438185602086016131f4565b61324c81612f44565b840191505092915050565b7f4e487b7100000000000000000000000000000000000000000000000000000000600052602160045260246000fd5b6004811061329757613296613257565b5b50565b60008190506132a882613286565b919050565b60006132b88261329a565b9050919050565b6132c8816132ad565b82525050565b60008115159050919050565b6132e3816132ce565b82525050565b6000610120820190506132ff600083018c612f10565b61330c602083018b6131c9565b613319604083018a6131c9565b818103606083015261332b818961321e565b9050818103608083015261333f818861321e565b905061334e60a0830187612f10565b61335b60c0830186612f10565b61336860e08301856132bf565b6133766101008301846132da565b9a9950505050505050505050565b60008060006060848603121561339d5761339c612e71565b5b600084013567ffffffffffffffff8111156133bb576133ba612e76565b5b6133c786828701613052565b935050602084013567ffffffffffffffff8111156133e8576133e7612e76565b5b6133f486828701613052565b925050604061340586828701613147565b9150509250925092565b6000806040838503121561342657613425612e71565b5b600061343485828601613147565b925050602061344585828601613147565b9150509250929050565b600081519050919050565b600082825260208201905092915050565b6000819050602082019050919050565b61348481612f06565b82525050565b61349381612e9b565b82525050565b600082825260208201905092915050565b60006134b5826131d8565b6134bf8185613499565b93506134cf8185602086016131f4565b6134d881612f44565b840191505092915050565b6134ec816132ad565b82525050565b6134fb816132ce565b82525050565b60006101208301600083015161351a600086018261347b565b50602083015161352d602086018261348a565b506040830151613540604086018261348a565b506060830151848203606086015261355882826134aa565b9150506080830151848203608086015261357282826134aa565b91505060a083015161358760a086018261347b565b5060c083015161359a60c086018261347b565b5060e08301516135ad60e08601826134e3565b506101008301516135c26101008601826134f2565b508091505092915050565b60006135d98383613501565b905092915050565b6000602082019050919050565b60006135f98261344f565b613603818561345a565b9350836020820285016136158561346b565b8060005b85811015613651578484038952815161363285826135cd565b945061363d836135e1565b925060208a01995050600181019050613619565b50829750879550505050505092915050565b6000602082019050818103600083015261367d81846135ee565b905092915050565b600081519050919050565b600082825260208201905092915050565b6000819050602082019050919050565b60006136bd838361347b565b60208301905092915050565b6000602082019050919050565b60006136e182613685565b6136eb8185613690565b93506136f6836136a1565b8060005b8381101561372757815161370e88826136b1565b9750613719836136c9565b9250506001810190506136fa565b5085935050505092915050565b6000602082019050818103600083015261374e81846136d6565b905092915050565b600081519050919050565b600082825260208201905092915050565b6000819050602082019050919050565b600061378e838361348a565b60208301905092915050565b6000602082019050919050565b60006137b282613756565b6137bc8185613761565b93506137c783613772565b8060005b838110156137f85781516137df8882613782565b97506137ea8361379a565b9250506001810190506137cb565b5085935050505092915050565b6000602082019050818103600083015261381f81846137a7565b905092915050565b600060208201905061383c60008301846131c9565b92915050565b6002811061385357613852613257565b5b50565b600081905061386482613842565b919050565b600061387482613856565b9050919050565b61388481613869565b82525050565b600060e08201905061389f600083018a6131c9565b81810360208301526138b1818961321e565b905081810360408301526138c5818861321e565b90506138d4606083018761387b565b6138e160808301866132da565b6138ee60a0830185612f10565b6138fb60c0830184612f10565b98975050505050505050565b7f55736572206e6f74207265676973746572656400000000000000000000000000600082015250565b600061393d6013836131e3565b915061394882613907565b602082019050919050565b6000602082019050818103600083015261396c81613930565b9050919050565b7f4e6f2066756e647320746f207769746864726177000000000000000000000000600082015250565b60006139a96014836131e3565b91506139b482613973565b602082019050919050565b600060208201905081810360008301526139d88161399c565b9050919050565b7f5573657220616c72656164792072656769737465726564000000000000000000600082015250565b6000613a156017836131e3565b9150613a20826139df565b602082019050919050565b60006020820190508181036000830152613a4481613a08565b9050919050565b7f4e487b7100000000000000000000000000000000000000000000000000000000600052602260045260246000fd5b60006002820490506001821680613a9257607f821691505b602082108103613aa557613aa4613a4b565b5b50919050565b60008190508160005260206000209050919050565b60006020601f8301049050919050565b600082821b905092915050565b600060088302613b0d7fffffffffffffffffffffffffffffffffffffffffffffffffffffffffffffffff82613ad0565b613b178683613ad0565b95508019841693508086168417925050509392505050565b6000819050919050565b6000613b54613b4f613b4a84612f06565b613b2f565b612f06565b9050919050565b6000819050919050565b613b6e83613b39565b613b82613b7a82613b5b565b848454613add565b825550505050565b600090565b613b97613b8a565b613ba2818484613b65565b505050565b5b81811015613bc657613bbb600082613b8f565b600181019050613ba8565b5050565b601f821115613c0b57613bdc81613aab565b613be584613ac0565b81016020851015613bf4578190505b613c08613c0085613ac0565b830182613ba7565b50505b505050565b600082821c905092915050565b6000613c2e60001984600802613c10565b1980831691505092915050565b6000613c478383613c1d565b9150826002028217905092915050565b613c60826131d8565b67ffffffffffffffff811115613c7957613c78612f55565b5b613c838254613a7a565b613c8e828285613bca565b600060209050601f831160018114613cc15760008415613caf578287015190505b613cb98582613c3b565b865550613d21565b601f198416613ccf86613aab565b60005b82811015613cf757848901518255600182019150602085019450602081019050613cd2565b86831015613d145784890151613d10601f891682613c1d565b8355505b6001600288020188555050505b505050505050565b60006040820190508181036000830152613d43818561321e565b9050613d52602083018461387b565b9392505050565b7f526174696e67206d757374206265206265747765656e203120616e6420350000600082015250565b6000613d8f601e836131e3565b9150613d9a82613d59565b602082019050919050565b60006020820190508181036000830152613dbe81613d82565b9050919050565b7f5573657220746f2072617465206973206e6f7420726567697374657265640000600082015250565b6000613dfb601e836131e3565b9150613e0682613dc5565b602082019050919050565b60006020820190508181036000830152613e2a81613dee565b9050919050565b7f596f7520686176656e277420736861726564206120726964652077697468207460008201527f6869732075736572000000000000000000000000000000000000000000000000602082015250565b6000613e8d6028836131e3565b9150613e9882613e31565b604082019050919050565b60006020820190508181036000830152613ebc81613e80565b9050919050565b7f4e487b7100000000000000000000000000000000000000000000000000000000600052601160045260246000fd5b6000613efd82612f06565b9150613f0883612f06565b9250828202613f1681612f06565b91508282048414831517613f2d57613f2c613ec3565b5b5092915050565b6000613f3f82612f06565b9150613f4a83612f06565b9250828201905080821115613f6257613f61613ec3565b5b92915050565b7f4e487b7100000000000000000000000000000000000000000000000000000000600052601260045260246000fd5b6000613fa282612f06565b9150613fad83612f06565b925082613fbd57613fbc613f68565b5b828204905092915050565b7f4f6e6c79207269646572732063616e20706572666f726d20746869732061637460008201527f696f6e0000000000000000000000000000000000000000000000000000000000602082015250565b60006140246023836131e3565b915061402f82613fc8565b604082019050919050565b6000602082019050818103600083015261405381614017565b9050919050565b7f496e73756666696369656e74207061796d656e7420666f722072696465000000600082015250565b6000614090601d836131e3565b915061409b8261405a565b602082019050919050565b600060208201905081810360008301526140bf81614083565b9050919050565b600060608201905081810360008301526140e0818661321e565b905081810360208301526140f4818561321e565b90506141036040830184612f10565b949350505050565b600061411682612f06565b91507fffffffffffffffffffffffffffffffffffffffffffffffffffffffffffffffff820361414857614147613ec3565b5b600182019050919050565b7f496e76616c69642072616e676500000000000000000000000000000000000000600082015250565b6000614189600d836131e3565b915061419482614153565b602082019050919050565b600060208201905081810360008301526141b88161417c565b9050919050565b60006141ca82612f06565b91506141d583612f06565b92508282039050818111156141ed576141ec613ec3565b5b92915050565b7f4e487b7100000000000000000000000000000000000000000000000000000000600052603260045260246000fd5b7f4665652070657263656e7461676520746f6f2068696768000000000000000000600082015250565b60006142586017836131e3565b915061426382614222565b602082019050919050565b600060208201905081810360008301526142878161424b565b9050919050565b7f5269646520646f6573206e6f7420657869737400000000000000000000000000600082015250565b60006142c46013836131e3565b91506142cf8261428e565b602082019050919050565b600060208201905081810360008301526142f3816142b7565b9050919050565b7f526964652063616e6e6f742062652063616e63656c6c65640000000000000000600082015250565b60006143306018836131e3565b915061433b826142fa565b602082019050919050565b6000602082019050818103600083015261435f81614323565b9050919050565b7f4f6e6c79207269646572206f72206472697665722063616e2063616e63656c00600082015250565b600061439c601f836131e3565b91506143a782614366565b602082019050919050565b600060208201905081810360008301526143cb8161438f565b9050919050565b7f4f6e6c7920647269766572732063616e20706572666f726d207468697320616360008201527f74696f6e00000000000000000000000000000000000000000000000000000000602082015250565b600061442e6024836131e3565b9150614439826143d2565b604082019050919050565b6000602082019050818103600083015261445d81614421565b9050919050565b7f4f6e6c792061737369676e6564206472697665722063616e20636f6d706c657460008201527f6520746865207269646500000000000000000000000000000000000000000000602082015250565b60006144c0602a836131e3565b91506144cb82614464565b604082019050919050565b600060208201905081810360008301526144ef816144b3565b9050919050565b7f52696465206973206e6f7420696e2070726f6772657373000000000000000000600082015250565b600061452c6017836131e3565b9150614537826144f6565b602082019050919050565b6000602082019050818103600083015261455b8161451f565b9050919050565b7f52696465206973206e6f7420617661696c61626c650000000000000000000000600082015250565b60006145986015836131e3565b91506145a382614562565b602082019050919050565b600060208201905081810360008301526145c78161458b565b9050919050565b7f5269646520616c72656164792068617320612064726976657200000000000000600082015250565b60006146046019836131e3565b915061460f826145ce565b602082019050919050565b60006020820190508181036000830152614633816145f7565b9050919050565b7f4f776e61626c653a206e6577206f776e657220697320746865207a65726f206160008201527f6464726573730000000000000000000000000000000000000000000000000000602082015250565b60006146966026836131e3565b91506146a18261463a565b604082019050919050565b600060208201905081810360008301526146c581614689565b9050919050565b7f5265656e7472616e637947756172643a207265656e7472616e742063616c6c00600082015250565b6000614702601f836131e3565b915061470d826146cc565b602082019050919050565b60006020820190508181036000830152614731816146f5565b9050919050565b7f4f776e61626c653a2063616c6c6572206973206e6f7420746865206f776e6572600082015250565b600061476e6020836131e3565b915061477982614738565b602082019050919050565b6000602082019050818103600083015261479d81614761565b9050919050565b7f4e487b7100000000000000000000000000000000000000000000000000000000600052603160045260246000fdfea2646970667358221220747640b6d7075be3c7821adf7c4345915686b6fbd027d60213c412fca1eccd7f64736f6c63430008140033",
  "linkReferences": {},
  "deployedLinkReferences": {}
}